{
  "_format": "hh-sol-artifact-1",
  "contractName": "NFTMarketplace",
  "sourceName": "contracts/NFTMarket.sol",
  "abi": [
    {
      "inputs": [],
      "stateMutability": "nonpayable",
      "type": "constructor"
    },
    {
      "anonymous": false,
      "inputs": [
        {
          "indexed": true,
          "internalType": "address",
          "name": "owner",
          "type": "address"
        },
        {
          "indexed": true,
          "internalType": "address",
          "name": "approved",
          "type": "address"
        },
        {
          "indexed": true,
          "internalType": "uint256",
          "name": "tokenId",
          "type": "uint256"
        }
      ],
      "name": "Approval",
      "type": "event"
    },
    {
      "anonymous": false,
      "inputs": [
        {
          "indexed": true,
          "internalType": "address",
          "name": "owner",
          "type": "address"
        },
        {
          "indexed": true,
          "internalType": "address",
          "name": "operator",
          "type": "address"
        },
        {
          "indexed": false,
          "internalType": "bool",
          "name": "approved",
          "type": "bool"
        }
      ],
      "name": "ApprovalForAll",
      "type": "event"
    },
    {
      "anonymous": false,
      "inputs": [
        {
          "indexed": true,
          "internalType": "uint256",
          "name": "tokenId",
          "type": "uint256"
        },
        {
          "indexed": false,
          "internalType": "address",
          "name": "seller",
          "type": "address"
        },
        {
          "indexed": false,
          "internalType": "address",
          "name": "owner",
          "type": "address"
        },
        {
          "indexed": false,
          "internalType": "uint256",
          "name": "price",
          "type": "uint256"
        },
        {
          "indexed": false,
          "internalType": "string",
          "name": "versions",
          "type": "string"
        },
        {
          "indexed": false,
          "internalType": "bool",
          "name": "sold",
          "type": "bool"
        }
      ],
      "name": "MarketItemCreated",
      "type": "event"
    },
    {
      "anonymous": false,
      "inputs": [
        {
          "indexed": false,
          "internalType": "address",
          "name": "addr",
          "type": "address"
        }
      ],
      "name": "Print",
      "type": "event"
    },
    {
      "anonymous": false,
      "inputs": [
        {
          "indexed": false,
          "internalType": "string",
          "name": "s",
          "type": "string"
        }
      ],
      "name": "Print",
      "type": "event"
    },
    {
      "anonymous": false,
      "inputs": [
        {
          "indexed": true,
          "internalType": "address",
          "name": "from",
          "type": "address"
        },
        {
          "indexed": true,
          "internalType": "address",
          "name": "to",
          "type": "address"
        },
        {
          "indexed": true,
          "internalType": "uint256",
          "name": "tokenId",
          "type": "uint256"
        }
      ],
      "name": "Transfer",
      "type": "event"
    },
    {
      "inputs": [
        {
          "internalType": "uint256",
          "name": "tokenId",
          "type": "uint256"
        },
        {
          "internalType": "string",
          "name": "new_versions",
          "type": "string"
        }
      ],
      "name": "appendVersion",
      "outputs": [],
      "stateMutability": "payable",
      "type": "function"
    },
    {
      "inputs": [
        {
          "internalType": "address",
          "name": "to",
          "type": "address"
        },
        {
          "internalType": "uint256",
          "name": "tokenId",
          "type": "uint256"
        }
      ],
      "name": "approve",
      "outputs": [],
      "stateMutability": "nonpayable",
      "type": "function"
    },
    {
      "inputs": [
        {
          "internalType": "address",
          "name": "owner",
          "type": "address"
        }
      ],
      "name": "balanceOf",
      "outputs": [
        {
          "internalType": "uint256",
          "name": "",
          "type": "uint256"
        }
      ],
      "stateMutability": "view",
      "type": "function"
    },
    {
      "inputs": [
        {
          "internalType": "uint256",
          "name": "tokenId",
          "type": "uint256"
        }
      ],
      "name": "createMarketSale",
      "outputs": [],
      "stateMutability": "payable",
      "type": "function"
    },
    {
      "inputs": [
        {
          "internalType": "string",
          "name": "tokenURI",
          "type": "string"
        },
        {
          "internalType": "uint256",
          "name": "price",
          "type": "uint256"
        },
        {
          "internalType": "string",
          "name": "versions",
          "type": "string"
        }
      ],
      "name": "createToken",
      "outputs": [
        {
          "internalType": "uint256",
          "name": "",
          "type": "uint256"
        }
      ],
      "stateMutability": "payable",
      "type": "function"
    },
    {
      "inputs": [],
      "name": "fetchItemsListed",
      "outputs": [
        {
          "components": [
            {
              "internalType": "uint256",
              "name": "tokenId",
              "type": "uint256"
            },
            {
              "internalType": "address payable",
              "name": "seller",
              "type": "address"
            },
            {
              "internalType": "address payable",
              "name": "owner",
              "type": "address"
            },
            {
              "internalType": "uint256",
              "name": "price",
              "type": "uint256"
            },
            {
              "internalType": "string",
              "name": "versions",
              "type": "string"
            },
            {
              "internalType": "bool",
              "name": "sold",
              "type": "bool"
            }
          ],
          "internalType": "struct NFTMarketplace.MarketItem[]",
          "name": "",
          "type": "tuple[]"
        }
      ],
      "stateMutability": "view",
      "type": "function"
    },
    {
      "inputs": [],
      "name": "fetchMarketItems",
      "outputs": [
        {
          "components": [
            {
              "internalType": "uint256",
              "name": "tokenId",
              "type": "uint256"
            },
            {
              "internalType": "address payable",
              "name": "seller",
              "type": "address"
            },
            {
              "internalType": "address payable",
              "name": "owner",
              "type": "address"
            },
            {
              "internalType": "uint256",
              "name": "price",
              "type": "uint256"
            },
            {
              "internalType": "string",
              "name": "versions",
              "type": "string"
            },
            {
              "internalType": "bool",
              "name": "sold",
              "type": "bool"
            }
          ],
          "internalType": "struct NFTMarketplace.MarketItem[]",
          "name": "",
          "type": "tuple[]"
        }
      ],
      "stateMutability": "view",
      "type": "function"
    },
    {
      "inputs": [],
      "name": "fetchMyNFTs",
      "outputs": [
        {
          "components": [
            {
              "internalType": "uint256",
              "name": "tokenId",
              "type": "uint256"
            },
            {
              "internalType": "address payable",
              "name": "seller",
              "type": "address"
            },
            {
              "internalType": "address payable",
              "name": "owner",
              "type": "address"
            },
            {
              "internalType": "uint256",
              "name": "price",
              "type": "uint256"
            },
            {
              "internalType": "string",
              "name": "versions",
              "type": "string"
            },
            {
              "internalType": "bool",
              "name": "sold",
              "type": "bool"
            }
          ],
          "internalType": "struct NFTMarketplace.MarketItem[]",
          "name": "",
          "type": "tuple[]"
        }
      ],
      "stateMutability": "view",
      "type": "function"
    },
    {
      "inputs": [
        {
          "internalType": "uint256",
          "name": "tokenId",
          "type": "uint256"
        }
      ],
      "name": "fetchOneItem",
      "outputs": [
        {
          "components": [
            {
              "internalType": "uint256",
              "name": "tokenId",
              "type": "uint256"
            },
            {
              "internalType": "address payable",
              "name": "seller",
              "type": "address"
            },
            {
              "internalType": "address payable",
              "name": "owner",
              "type": "address"
            },
            {
              "internalType": "uint256",
              "name": "price",
              "type": "uint256"
            },
            {
              "internalType": "string",
              "name": "versions",
              "type": "string"
            },
            {
              "internalType": "bool",
              "name": "sold",
              "type": "bool"
            }
          ],
          "internalType": "struct NFTMarketplace.MarketItem",
          "name": "",
          "type": "tuple"
        }
      ],
      "stateMutability": "view",
      "type": "function"
    },
    {
      "inputs": [
        {
          "internalType": "uint256",
          "name": "tokenId",
          "type": "uint256"
        }
      ],
      "name": "getApproved",
      "outputs": [
        {
          "internalType": "address",
          "name": "",
          "type": "address"
        }
      ],
      "stateMutability": "view",
      "type": "function"
    },
    {
      "inputs": [],
      "name": "getListingPrice",
      "outputs": [
        {
          "internalType": "uint256",
          "name": "",
          "type": "uint256"
        }
      ],
      "stateMutability": "view",
      "type": "function"
    },
    {
      "inputs": [],
      "name": "getSender",
      "outputs": [],
      "stateMutability": "nonpayable",
      "type": "function"
    },
    {
      "inputs": [
        {
          "internalType": "address",
          "name": "owner",
          "type": "address"
        },
        {
          "internalType": "address",
          "name": "operator",
          "type": "address"
        }
      ],
      "name": "isApprovedForAll",
      "outputs": [
        {
          "internalType": "bool",
          "name": "",
          "type": "bool"
        }
      ],
      "stateMutability": "view",
      "type": "function"
    },
    {
      "inputs": [],
      "name": "name",
      "outputs": [
        {
          "internalType": "string",
          "name": "",
          "type": "string"
        }
      ],
      "stateMutability": "view",
      "type": "function"
    },
    {
      "inputs": [
        {
          "internalType": "uint256",
          "name": "tokenId",
          "type": "uint256"
        }
      ],
      "name": "ownerOf",
      "outputs": [
        {
          "internalType": "address",
          "name": "",
          "type": "address"
        }
      ],
      "stateMutability": "view",
      "type": "function"
    },
    {
      "inputs": [
        {
          "internalType": "uint256",
          "name": "tokenId",
          "type": "uint256"
        },
        {
          "internalType": "uint256",
          "name": "price",
          "type": "uint256"
        }
      ],
      "name": "resellToken",
      "outputs": [],
      "stateMutability": "payable",
      "type": "function"
    },
    {
      "inputs": [
        {
          "internalType": "address",
          "name": "from",
          "type": "address"
        },
        {
          "internalType": "address",
          "name": "to",
          "type": "address"
        },
        {
          "internalType": "uint256",
          "name": "tokenId",
          "type": "uint256"
        }
      ],
      "name": "safeTransferFrom",
      "outputs": [],
      "stateMutability": "nonpayable",
      "type": "function"
    },
    {
      "inputs": [
        {
          "internalType": "address",
          "name": "from",
          "type": "address"
        },
        {
          "internalType": "address",
          "name": "to",
          "type": "address"
        },
        {
          "internalType": "uint256",
          "name": "tokenId",
          "type": "uint256"
        },
        {
          "internalType": "bytes",
          "name": "_data",
          "type": "bytes"
        }
      ],
      "name": "safeTransferFrom",
      "outputs": [],
      "stateMutability": "nonpayable",
      "type": "function"
    },
    {
      "inputs": [
        {
          "internalType": "address",
          "name": "operator",
          "type": "address"
        },
        {
          "internalType": "bool",
          "name": "approved",
          "type": "bool"
        }
      ],
      "name": "setApprovalForAll",
      "outputs": [],
      "stateMutability": "nonpayable",
      "type": "function"
    },
    {
      "inputs": [
        {
          "internalType": "bytes4",
          "name": "interfaceId",
          "type": "bytes4"
        }
      ],
      "name": "supportsInterface",
      "outputs": [
        {
          "internalType": "bool",
          "name": "",
          "type": "bool"
        }
      ],
      "stateMutability": "view",
      "type": "function"
    },
    {
      "inputs": [],
      "name": "symbol",
      "outputs": [
        {
          "internalType": "string",
          "name": "",
          "type": "string"
        }
      ],
      "stateMutability": "view",
      "type": "function"
    },
    {
      "inputs": [
        {
          "internalType": "uint256",
          "name": "tokenId",
          "type": "uint256"
        }
      ],
      "name": "tokenURI",
      "outputs": [
        {
          "internalType": "string",
          "name": "",
          "type": "string"
        }
      ],
      "stateMutability": "view",
      "type": "function"
    },
    {
      "inputs": [
        {
          "internalType": "address",
          "name": "from",
          "type": "address"
        },
        {
          "internalType": "address",
          "name": "to",
          "type": "address"
        },
        {
          "internalType": "uint256",
          "name": "tokenId",
          "type": "uint256"
        }
      ],
      "name": "transferFrom",
      "outputs": [],
      "stateMutability": "nonpayable",
      "type": "function"
    },
    {
      "inputs": [
        {
          "internalType": "uint256",
          "name": "_listingPrice",
          "type": "uint256"
        }
      ],
      "name": "updateListingPrice",
      "outputs": [],
      "stateMutability": "payable",
      "type": "function"
    }
  ],
  "bytecode": "0x608060405260006009553480156200001657600080fd5b506040518060400160405280601081526020017f4d657461766572736520546f6b656e73000000000000000000000000000000008152506040518060400160405280600481526020017f4d4554540000000000000000000000000000000000000000000000000000000081525081600090805190602001906200009b929190620000fe565b508060019080519060200190620000b4929190620000fe565b50505033600a60006101000a81548173ffffffffffffffffffffffffffffffffffffffff021916908373ffffffffffffffffffffffffffffffffffffffff16021790555062000213565b8280546200010c90620001ae565b90600052602060002090601f0160209004810192826200013057600085556200017c565b82601f106200014b57805160ff19168380011785556200017c565b828001600101855582156200017c579182015b828111156200017b5782518255916020019190600101906200015e565b5b5090506200018b91906200018f565b5090565b5b80821115620001aa57600081600090555060010162000190565b5090565b60006002820490506001821680620001c757607f821691505b60208210811415620001de57620001dd620001e4565b5b50919050565b7f4e487b7100000000000000000000000000000000000000000000000000000000600052602260045260246000fd5b614b4980620002236000396000f3fe60806040526004361061014b5760003560e01c806370a08231116100b6578063b88d4fde1161006f578063b88d4fde14610476578063be9af5361461049f578063c6c9b5b1146104bb578063c87b56dd146104eb578063e219fc7514610528578063e985e9c5146105445761014b565b806370a082311461037057806388ceb0df146103ad57806395d89b41146103ea578063a22cb46514610415578063ae677aa31461043e578063b641b61c1461045a5761014b565b8063202e374011610108578063202e37401461027457806323b872dd1461029f57806342842e0e146102c857806345f8fa80146102f15780635e01eb5a1461031c5780636352211e146103335761014b565b806301ffc9a71461015057806306fdde031461018d578063081812fc146101b8578063095ea7b3146101f55780630f08efe01461021e57806312e8558514610249575b600080fd5b34801561015c57600080fd5b5061017760048036038101906101729190613415565b610581565b6040516101849190613cf9565b60405180910390f35b34801561019957600080fd5b506101a2610663565b6040516101af9190613d14565b60405180910390f35b3480156101c457600080fd5b506101df60048036038101906101da91906134e6565b6106f5565b6040516101ec9190613c16565b60405180910390f35b34801561020157600080fd5b5061021c600480360381019061021791906133d9565b61077a565b005b34801561022a57600080fd5b50610233610892565b6040516102409190613cd7565b60405180910390f35b34801561025557600080fd5b5061025e610bd9565b60405161026b919061403a565b60405180910390f35b34801561028057600080fd5b50610289610be3565b6040516102969190613cd7565b60405180910390f35b3480156102ab57600080fd5b506102c660048036038101906102c191906132d3565b610faf565b005b3480156102d457600080fd5b506102ef60048036038101906102ea91906132d3565b61100f565b005b3480156102fd57600080fd5b5061030661102f565b6040516103139190613cd7565b60405180910390f35b34801561032857600080fd5b506103316113fb565b005b34801561033f57600080fd5b5061035a600480360381019061035591906134e6565b611434565b6040516103679190613c16565b60405180910390f35b34801561037c57600080fd5b506103976004803603810190610392919061326e565b6114e6565b6040516103a4919061403a565b60405180910390f35b3480156103b957600080fd5b506103d460048036038101906103cf91906134e6565b61159e565b6040516103e19190614018565b60405180910390f35b3480156103f657600080fd5b506103ff611738565b60405161040c9190613d14565b60405180910390f35b34801561042157600080fd5b5061043c6004803603810190610437919061339d565b6117ca565b005b610458600480360381019061045391906134e6565b6117e0565b005b610474600480360381019061046f919061350f565b61187a565b005b34801561048257600080fd5b5061049d60048036038101906104989190613322565b6119a4565b005b6104b960048036038101906104b491906134e6565b611a06565b005b6104d560048036038101906104d09190613467565b611c44565b6040516104e2919061403a565b60405180910390f35b3480156104f757600080fd5b50610512600480360381019061050d91906134e6565b611c88565b60405161051f9190613d14565b60405180910390f35b610542600480360381019061053d9190613563565b611dda565b005b34801561055057600080fd5b5061056b60048036038101906105669190613297565b611fcf565b6040516105789190613cf9565b60405180910390f35b60007f80ac58cd000000000000000000000000000000000000000000000000000000007bffffffffffffffffffffffffffffffffffffffffffffffffffffffff1916827bffffffffffffffffffffffffffffffffffffffffffffffffffffffff1916148061064c57507f5b5e139f000000000000000000000000000000000000000000000000000000007bffffffffffffffffffffffffffffffffffffffffffffffffffffffff1916827bffffffffffffffffffffffffffffffffffffffffffffffffffffffff1916145b8061065c575061065b82612063565b5b9050919050565b60606000805461067290614301565b80601f016020809104026020016040519081016040528092919081815260200182805461069e90614301565b80156106eb5780601f106106c0576101008083540402835291602001916106eb565b820191906000526020600020905b8154815290600101906020018083116106ce57829003601f168201915b5050505050905090565b6000610700826120cd565b61073f576040517f08c379a000000000000000000000000000000000000000000000000000000000815260040161073690613f38565b60405180910390fd5b6004600083815260200190815260200160002060009054906101000a900473ffffffffffffffffffffffffffffffffffffffff169050919050565b600061078582611434565b90508073ffffffffffffffffffffffffffffffffffffffff168373ffffffffffffffffffffffffffffffffffffffff1614156107f6576040517f08c379a00000000000000000000000000000000000000000000000000000000081526004016107ed90613f78565b60405180910390fd5b8073ffffffffffffffffffffffffffffffffffffffff16610815612139565b73ffffffffffffffffffffffffffffffffffffffff16148061084457506108438161083e612139565b611fcf565b5b610883576040517f08c379a000000000000000000000000000000000000000000000000000000000815260040161087a90613e38565b60405180910390fd5b61088d8383612141565b505050565b606060006108a060076121fa565b905060006108ae60086121fa565b6108b860076121fa565b6108c29190614205565b90506000808267ffffffffffffffff811115610907577f4e487b7100000000000000000000000000000000000000000000000000000000600052604160045260246000fd5b60405190808252806020026020018201604052801561094057816020015b61092d61302e565b8152602001906001900390816109255790505b50905060005b84811015610bce573073ffffffffffffffffffffffffffffffffffffffff16600b6000600184610976919061417e565b815260200190815260200160002060020160009054906101000a900473ffffffffffffffffffffffffffffffffffffffff1673ffffffffffffffffffffffffffffffffffffffff161415610bbb5760006001826109d3919061417e565b90506000600b60008381526020019081526020016000209050806040518060c0016040529081600082015481526020016001820160009054906101000a900473ffffffffffffffffffffffffffffffffffffffff1673ffffffffffffffffffffffffffffffffffffffff1673ffffffffffffffffffffffffffffffffffffffff1681526020016002820160009054906101000a900473ffffffffffffffffffffffffffffffffffffffff1673ffffffffffffffffffffffffffffffffffffffff1673ffffffffffffffffffffffffffffffffffffffff16815260200160038201548152602001600482018054610ac890614301565b80601f0160208091040260200160405190810160405280929190818152602001828054610af490614301565b8015610b415780601f10610b1657610100808354040283529160200191610b41565b820191906000526020600020905b815481529060010190602001808311610b2457829003601f168201915b505050505081526020016005820160009054906101000a900460ff161515151581525050848681518110610b9e577f4e487b7100000000000000000000000000000000000000000000000000000000600052603260045260246000fd5b6020026020010181905250600185610bb6919061417e565b945050505b8080610bc690614364565b915050610946565b508094505050505090565b6000600954905090565b60606000610bf160076121fa565b905060008060005b83811015610c9a573373ffffffffffffffffffffffffffffffffffffffff16600b6000600184610c29919061417e565b815260200190815260200160002060020160009054906101000a900473ffffffffffffffffffffffffffffffffffffffff1673ffffffffffffffffffffffffffffffffffffffff161415610c8757600183610c84919061417e565b92505b8080610c9290614364565b915050610bf9565b5060008267ffffffffffffffff811115610cdd577f4e487b7100000000000000000000000000000000000000000000000000000000600052604160045260246000fd5b604051908082528060200260200182016040528015610d1657816020015b610d0361302e565b815260200190600190039081610cfb5790505b50905060005b84811015610fa4573373ffffffffffffffffffffffffffffffffffffffff16600b6000600184610d4c919061417e565b815260200190815260200160002060020160009054906101000a900473ffffffffffffffffffffffffffffffffffffffff1673ffffffffffffffffffffffffffffffffffffffff161415610f91576000600182610da9919061417e565b90506000600b60008381526020019081526020016000209050806040518060c0016040529081600082015481526020016001820160009054906101000a900473ffffffffffffffffffffffffffffffffffffffff1673ffffffffffffffffffffffffffffffffffffffff1673ffffffffffffffffffffffffffffffffffffffff1681526020016002820160009054906101000a900473ffffffffffffffffffffffffffffffffffffffff1673ffffffffffffffffffffffffffffffffffffffff1673ffffffffffffffffffffffffffffffffffffffff16815260200160038201548152602001600482018054610e9e90614301565b80601f0160208091040260200160405190810160405280929190818152602001828054610eca90614301565b8015610f175780601f10610eec57610100808354040283529160200191610f17565b820191906000526020600020905b815481529060010190602001808311610efa57829003601f168201915b505050505081526020016005820160009054906101000a900460ff161515151581525050848681518110610f74577f4e487b7100000000000000000000000000000000000000000000000000000000600052603260045260246000fd5b6020026020010181905250600185610f8c919061417e565b945050505b8080610f9c90614364565b915050610d1c565b508094505050505090565b610fc0610fba612139565b82612208565b610fff576040517f08c379a0000000000000000000000000000000000000000000000000000000008152600401610ff690613fb8565b60405180910390fd5b61100a8383836122e6565b505050565b61102a838383604051806020016040528060008152506119a4565b505050565b6060600061103d60076121fa565b905060008060005b838110156110e6573373ffffffffffffffffffffffffffffffffffffffff16600b6000600184611075919061417e565b815260200190815260200160002060010160009054906101000a900473ffffffffffffffffffffffffffffffffffffffff1673ffffffffffffffffffffffffffffffffffffffff1614156110d3576001836110d0919061417e565b92505b80806110de90614364565b915050611045565b5060008267ffffffffffffffff811115611129577f4e487b7100000000000000000000000000000000000000000000000000000000600052604160045260246000fd5b60405190808252806020026020018201604052801561116257816020015b61114f61302e565b8152602001906001900390816111475790505b50905060005b848110156113f0573373ffffffffffffffffffffffffffffffffffffffff16600b6000600184611198919061417e565b815260200190815260200160002060010160009054906101000a900473ffffffffffffffffffffffffffffffffffffffff1673ffffffffffffffffffffffffffffffffffffffff1614156113dd5760006001826111f5919061417e565b90506000600b60008381526020019081526020016000209050806040518060c0016040529081600082015481526020016001820160009054906101000a900473ffffffffffffffffffffffffffffffffffffffff1673ffffffffffffffffffffffffffffffffffffffff1673ffffffffffffffffffffffffffffffffffffffff1681526020016002820160009054906101000a900473ffffffffffffffffffffffffffffffffffffffff1673ffffffffffffffffffffffffffffffffffffffff1673ffffffffffffffffffffffffffffffffffffffff168152602001600382015481526020016004820180546112ea90614301565b80601f016020809104026020016040519081016040528092919081815260200182805461131690614301565b80156113635780601f1061133857610100808354040283529160200191611363565b820191906000526020600020905b81548152906001019060200180831161134657829003601f168201915b505050505081526020016005820160009054906101000a900460ff1615151515815250508486815181106113c0577f4e487b7100000000000000000000000000000000000000000000000000000000600052603260045260246000fd5b60200260200101819052506001856113d8919061417e565b945050505b80806113e890614364565b915050611168565b508094505050505090565b7fa8e608801119a422405d57e76518f793d972b389576b43d2e40d59d4dde10ff73360405161142a9190613c16565b60405180910390a1565b6000806002600084815260200190815260200160002060009054906101000a900473ffffffffffffffffffffffffffffffffffffffff169050600073ffffffffffffffffffffffffffffffffffffffff168173ffffffffffffffffffffffffffffffffffffffff1614156114dd576040517f08c379a00000000000000000000000000000000000000000000000000000000081526004016114d490613e78565b60405180910390fd5b80915050919050565b60008073ffffffffffffffffffffffffffffffffffffffff168273ffffffffffffffffffffffffffffffffffffffff161415611557576040517f08c379a000000000000000000000000000000000000000000000000000000000815260040161154e90613e58565b60405180910390fd5b600360008373ffffffffffffffffffffffffffffffffffffffff1673ffffffffffffffffffffffffffffffffffffffff168152602001908152602001600020549050919050565b6115a661302e565b600b60008381526020019081526020016000206040518060c0016040529081600082015481526020016001820160009054906101000a900473ffffffffffffffffffffffffffffffffffffffff1673ffffffffffffffffffffffffffffffffffffffff1673ffffffffffffffffffffffffffffffffffffffff1681526020016002820160009054906101000a900473ffffffffffffffffffffffffffffffffffffffff1673ffffffffffffffffffffffffffffffffffffffff1673ffffffffffffffffffffffffffffffffffffffff1681526020016003820154815260200160048201805461169490614301565b80601f01602080910402602001604051908101604052809291908181526020018280546116c090614301565b801561170d5780601f106116e25761010080835404028352916020019161170d565b820191906000526020600020905b8154815290600101906020018083116116f057829003601f168201915b505050505081526020016005820160009054906101000a900460ff1615151515815250509050919050565b60606001805461174790614301565b80601f016020809104026020016040519081016040528092919081815260200182805461177390614301565b80156117c05780601f10611795576101008083540402835291602001916117c0565b820191906000526020600020905b8154815290600101906020018083116117a357829003601f168201915b5050505050905090565b6117dc6117d5612139565b838361254d565b5050565b3373ffffffffffffffffffffffffffffffffffffffff16600a60009054906101000a900473ffffffffffffffffffffffffffffffffffffffff1673ffffffffffffffffffffffffffffffffffffffff1614611870576040517f08c379a000000000000000000000000000000000000000000000000000000000815260040161186790613fd8565b60405180910390fd5b8060098190555050565b3373ffffffffffffffffffffffffffffffffffffffff16600b600084815260200190815260200160002060020160009054906101000a900473ffffffffffffffffffffffffffffffffffffffff1673ffffffffffffffffffffffffffffffffffffffff161461191e576040517f08c379a000000000000000000000000000000000000000000000000000000000815260040161191590613f18565b60405180910390fd5b80600b60008481526020019081526020016000206004019080519060200190611948929190613092565b506119543333846122e6565b7f241ba3bafc919fb4308284ce03a8f4867a8ec2f0401445d3cf41a468e7db4ae0600b60008481526020019081526020016000206004016040516119989190613d36565b60405180910390a15050565b6119b56119af612139565b83612208565b6119f4576040517f08c379a00000000000000000000000000000000000000000000000000000000081526004016119eb90613fb8565b60405180910390fd5b611a00848484846126ba565b50505050565b6000600b60008381526020019081526020016000206003015490506000600b600084815260200190815260200160002060010160009054906101000a900473ffffffffffffffffffffffffffffffffffffffff169050813414611a9e576040517f08c379a0000000000000000000000000000000000000000000000000000000008152600401611a9590613eb8565b60405180910390fd5b33600b600085815260200190815260200160002060020160006101000a81548173ffffffffffffffffffffffffffffffffffffffff021916908373ffffffffffffffffffffffffffffffffffffffff1602179055506001600b600085815260200190815260200160002060050160006101000a81548160ff0219169083151502179055506000600b600085815260200190815260200160002060010160006101000a81548173ffffffffffffffffffffffffffffffffffffffff021916908373ffffffffffffffffffffffffffffffffffffffff160217905550611b826008612716565b611b8d3033856122e6565b600a60009054906101000a900473ffffffffffffffffffffffffffffffffffffffff1673ffffffffffffffffffffffffffffffffffffffff166108fc6009549081150290604051600060405180830381858888f19350505050158015611bf7573d6000803e3d6000fd5b508073ffffffffffffffffffffffffffffffffffffffff166108fc349081150290604051600060405180830381858888f19350505050158015611c3e573d6000803e3d6000fd5b50505050565b6000611c506007612716565b6000611c5c60076121fa565b9050611c68338261272c565b611c728186612906565b611c7d81858561297a565b809150509392505050565b6060611c93826120cd565b611cd2576040517f08c379a0000000000000000000000000000000000000000000000000000000008152600401611cc990613ef8565b60405180910390fd5b6000600660008481526020019081526020016000208054611cf290614301565b80601f0160208091040260200160405190810160405280929190818152602001828054611d1e90614301565b8015611d6b5780601f10611d4057610100808354040283529160200191611d6b565b820191906000526020600020905b815481529060010190602001808311611d4e57829003601f168201915b505050505090506000611d7c612ba3565b9050600081511415611d92578192505050611dd5565b600082511115611dc7578082604051602001611daf929190613bf2565b60405160208183030381529060405292505050611dd5565b611dd084612bba565b925050505b919050565b3373ffffffffffffffffffffffffffffffffffffffff16600b600084815260200190815260200160002060020160009054906101000a900473ffffffffffffffffffffffffffffffffffffffff1673ffffffffffffffffffffffffffffffffffffffff1614611e7e576040517f08c379a0000000000000000000000000000000000000000000000000000000008152600401611e7590613f18565b60405180910390fd5b6009543414611ec2576040517f08c379a0000000000000000000000000000000000000000000000000000000008152600401611eb990613f98565b60405180910390fd5b6000600b600084815260200190815260200160002060050160006101000a81548160ff02191690831515021790555080600b60008481526020019081526020016000206003018190555033600b600084815260200190815260200160002060010160006101000a81548173ffffffffffffffffffffffffffffffffffffffff021916908373ffffffffffffffffffffffffffffffffffffffff16021790555030600b600084815260200190815260200160002060020160006101000a81548173ffffffffffffffffffffffffffffffffffffffff021916908373ffffffffffffffffffffffffffffffffffffffff160217905550611fc06008612c61565b611fcb3330846122e6565b5050565b6000600560008473ffffffffffffffffffffffffffffffffffffffff1673ffffffffffffffffffffffffffffffffffffffff16815260200190815260200160002060008373ffffffffffffffffffffffffffffffffffffffff1673ffffffffffffffffffffffffffffffffffffffff16815260200190815260200160002060009054906101000a900460ff16905092915050565b60007f01ffc9a7000000000000000000000000000000000000000000000000000000007bffffffffffffffffffffffffffffffffffffffffffffffffffffffff1916827bffffffffffffffffffffffffffffffffffffffffffffffffffffffff1916149050919050565b60008073ffffffffffffffffffffffffffffffffffffffff166002600084815260200190815260200160002060009054906101000a900473ffffffffffffffffffffffffffffffffffffffff1673ffffffffffffffffffffffffffffffffffffffff1614159050919050565b600033905090565b816004600083815260200190815260200160002060006101000a81548173ffffffffffffffffffffffffffffffffffffffff021916908373ffffffffffffffffffffffffffffffffffffffff160217905550808273ffffffffffffffffffffffffffffffffffffffff166121b483611434565b73ffffffffffffffffffffffffffffffffffffffff167f8c5be1e5ebec7d5bd14f71427d1e84f3dd0314c0f7b2291e5b200ac8c7c3b92560405160405180910390a45050565b600081600001549050919050565b6000612213826120cd565b612252576040517f08c379a000000000000000000000000000000000000000000000000000000000815260040161224990613e18565b60405180910390fd5b600061225d83611434565b90508073ffffffffffffffffffffffffffffffffffffffff168473ffffffffffffffffffffffffffffffffffffffff1614806122cc57508373ffffffffffffffffffffffffffffffffffffffff166122b4846106f5565b73ffffffffffffffffffffffffffffffffffffffff16145b806122dd57506122dc8185611fcf565b5b91505092915050565b8273ffffffffffffffffffffffffffffffffffffffff1661230682611434565b73ffffffffffffffffffffffffffffffffffffffff161461235c576040517f08c379a000000000000000000000000000000000000000000000000000000000815260040161235390613d98565b60405180910390fd5b600073ffffffffffffffffffffffffffffffffffffffff168273ffffffffffffffffffffffffffffffffffffffff1614156123cc576040517f08c379a00000000000000000000000000000000000000000000000000000000081526004016123c390613dd8565b60405180910390fd5b6123d7838383612cbd565b6123e2600082612141565b6001600360008573ffffffffffffffffffffffffffffffffffffffff1673ffffffffffffffffffffffffffffffffffffffff16815260200190815260200160002060008282546124329190614205565b925050819055506001600360008473ffffffffffffffffffffffffffffffffffffffff1673ffffffffffffffffffffffffffffffffffffffff1681526020019081526020016000206000828254612489919061417e565b92505081905550816002600083815260200190815260200160002060006101000a81548173ffffffffffffffffffffffffffffffffffffffff021916908373ffffffffffffffffffffffffffffffffffffffff160217905550808273ffffffffffffffffffffffffffffffffffffffff168473ffffffffffffffffffffffffffffffffffffffff167fddf252ad1be2c89b69c2b068fc378daa952ba7f163c4a11628f55a4df523b3ef60405160405180910390a4612548838383612cc2565b505050565b8173ffffffffffffffffffffffffffffffffffffffff168373ffffffffffffffffffffffffffffffffffffffff1614156125bc576040517f08c379a00000000000000000000000000000000000000000000000000000000081526004016125b390613df8565b60405180910390fd5b80600560008573ffffffffffffffffffffffffffffffffffffffff1673ffffffffffffffffffffffffffffffffffffffff16815260200190815260200160002060008473ffffffffffffffffffffffffffffffffffffffff1673ffffffffffffffffffffffffffffffffffffffff16815260200190815260200160002060006101000a81548160ff0219169083151502179055508173ffffffffffffffffffffffffffffffffffffffff168373ffffffffffffffffffffffffffffffffffffffff167f17307eab39ab6107e8899845ad3d59bd9653f200f220920489ca2b5937696c31836040516126ad9190613cf9565b60405180910390a3505050565b6126c58484846122e6565b6126d184848484612cc7565b612710576040517f08c379a000000000000000000000000000000000000000000000000000000000815260040161270790613d78565b60405180910390fd5b50505050565b6001816000016000828254019250508190555050565b600073ffffffffffffffffffffffffffffffffffffffff168273ffffffffffffffffffffffffffffffffffffffff16141561279c576040517f08c379a000000000000000000000000000000000000000000000000000000000815260040161279390613ed8565b60405180910390fd5b6127a5816120cd565b156127e5576040517f08c379a00000000000000000000000000000000000000000000000000000000081526004016127dc90613db8565b60405180910390fd5b6127f160008383612cbd565b6001600360008473ffffffffffffffffffffffffffffffffffffffff1673ffffffffffffffffffffffffffffffffffffffff1681526020019081526020016000206000828254612841919061417e565b92505081905550816002600083815260200190815260200160002060006101000a81548173ffffffffffffffffffffffffffffffffffffffff021916908373ffffffffffffffffffffffffffffffffffffffff160217905550808273ffffffffffffffffffffffffffffffffffffffff16600073ffffffffffffffffffffffffffffffffffffffff167fddf252ad1be2c89b69c2b068fc378daa952ba7f163c4a11628f55a4df523b3ef60405160405180910390a461290260008383612cc2565b5050565b61290f826120cd565b61294e576040517f08c379a000000000000000000000000000000000000000000000000000000000815260040161294590613e98565b60405180910390fd5b80600660008481526020019081526020016000209080519060200190612975929190613092565b505050565b600082116129bd576040517f08c379a00000000000000000000000000000000000000000000000000000000081526004016129b490613ff8565b60405180910390fd5b6009543414612a01576040517f08c379a00000000000000000000000000000000000000000000000000000000081526004016129f890613f98565b60405180910390fd5b6040518060c001604052808481526020013373ffffffffffffffffffffffffffffffffffffffff1681526020013073ffffffffffffffffffffffffffffffffffffffff16815260200183815260200182815260200160001515815250600b60008581526020019081526020016000206000820151816000015560208201518160010160006101000a81548173ffffffffffffffffffffffffffffffffffffffff021916908373ffffffffffffffffffffffffffffffffffffffff16021790555060408201518160020160006101000a81548173ffffffffffffffffffffffffffffffffffffffff021916908373ffffffffffffffffffffffffffffffffffffffff160217905550606082015181600301556080820151816004019080519060200190612b2e929190613092565b5060a08201518160050160006101000a81548160ff021916908315150217905550905050612b5d3330856122e6565b827fe4958780fe3b3f0505e410985e1047d8533d6d15ac3fb1c69558c491ed1f9965333085856000604051612b96959493929190613c7d565b60405180910390a2505050565b606060405180602001604052806000815250905090565b6060612bc5826120cd565b612c04576040517f08c379a0000000000000000000000000000000000000000000000000000000008152600401612bfb90613f58565b60405180910390fd5b6000612c0e612ba3565b90506000815111612c2e5760405180602001604052806000815250612c59565b80612c3884612e5e565b604051602001612c49929190613bf2565b6040516020818303038152906040525b915050919050565b60008160000154905060008111612cad576040517f08c379a0000000000000000000000000000000000000000000000000000000008152600401612ca490613d58565b60405180910390fd5b6001810382600001819055505050565b505050565b505050565b6000612ce88473ffffffffffffffffffffffffffffffffffffffff1661300b565b15612e51578373ffffffffffffffffffffffffffffffffffffffff1663150b7a02612d11612139565b8786866040518563ffffffff1660e01b8152600401612d339493929190613c31565b602060405180830381600087803b158015612d4d57600080fd5b505af1925050508015612d7e57506040513d601f19601f82011682018060405250810190612d7b919061343e565b60015b612e01573d8060008114612dae576040519150601f19603f3d011682016040523d82523d6000602084013e612db3565b606091505b50600081511415612df9576040517f08c379a0000000000000000000000000000000000000000000000000000000008152600401612df090613d78565b60405180910390fd5b805181602001fd5b63150b7a0260e01b7bffffffffffffffffffffffffffffffffffffffffffffffffffffffff1916817bffffffffffffffffffffffffffffffffffffffffffffffffffffffff191614915050612e56565b600190505b949350505050565b60606000821415612ea6576040518060400160405280600181526020017f30000000000000000000000000000000000000000000000000000000000000008152509050613006565b600082905060005b60008214612ed8578080612ec190614364565b915050600a82612ed191906141d4565b9150612eae565b60008167ffffffffffffffff811115612f1a577f4e487b7100000000000000000000000000000000000000000000000000000000600052604160045260246000fd5b6040519080825280601f01601f191660200182016040528015612f4c5781602001600182028036833780820191505090505b5090505b60008514612fff57600182612f659190614205565b9150600a85612f7491906143ad565b6030612f80919061417e565b60f81b818381518110612fbc577f4e487b7100000000000000000000000000000000000000000000000000000000600052603260045260246000fd5b60200101907effffffffffffffffffffffffffffffffffffffffffffffffffffffffffffff1916908160001a905350600a85612ff891906141d4565b9450612f50565b8093505050505b919050565b6000808273ffffffffffffffffffffffffffffffffffffffff163b119050919050565b6040518060c0016040528060008152602001600073ffffffffffffffffffffffffffffffffffffffff168152602001600073ffffffffffffffffffffffffffffffffffffffff16815260200160008152602001606081526020016000151581525090565b82805461309e90614301565b90600052602060002090601f0160209004810192826130c05760008555613107565b82601f106130d957805160ff1916838001178555613107565b82800160010185558215613107579182015b828111156131065782518255916020019190600101906130eb565b5b5090506131149190613118565b5090565b5b80821115613131576000816000905550600101613119565b5090565b60006131486131438461407a565b614055565b90508281526020810184848401111561316057600080fd5b61316b8482856142bf565b509392505050565b6000613186613181846140ab565b614055565b90508281526020810184848401111561319e57600080fd5b6131a98482856142bf565b509392505050565b6000813590506131c081614ab7565b92915050565b6000813590506131d581614ace565b92915050565b6000813590506131ea81614ae5565b92915050565b6000815190506131ff81614ae5565b92915050565b600082601f83011261321657600080fd5b8135613226848260208601613135565b91505092915050565b600082601f83011261324057600080fd5b8135613250848260208601613173565b91505092915050565b60008135905061326881614afc565b92915050565b60006020828403121561328057600080fd5b600061328e848285016131b1565b91505092915050565b600080604083850312156132aa57600080fd5b60006132b8858286016131b1565b92505060206132c9858286016131b1565b9150509250929050565b6000806000606084860312156132e857600080fd5b60006132f6868287016131b1565b9350506020613307868287016131b1565b925050604061331886828701613259565b9150509250925092565b6000806000806080858703121561333857600080fd5b6000613346878288016131b1565b9450506020613357878288016131b1565b935050604061336887828801613259565b925050606085013567ffffffffffffffff81111561338557600080fd5b61339187828801613205565b91505092959194509250565b600080604083850312156133b057600080fd5b60006133be858286016131b1565b92505060206133cf858286016131c6565b9150509250929050565b600080604083850312156133ec57600080fd5b60006133fa858286016131b1565b925050602061340b85828601613259565b9150509250929050565b60006020828403121561342757600080fd5b6000613435848285016131db565b91505092915050565b60006020828403121561345057600080fd5b600061345e848285016131f0565b91505092915050565b60008060006060848603121561347c57600080fd5b600084013567ffffffffffffffff81111561349657600080fd5b6134a28682870161322f565b93505060206134b386828701613259565b925050604084013567ffffffffffffffff8111156134d057600080fd5b6134dc8682870161322f565b9150509250925092565b6000602082840312156134f857600080fd5b600061350684828501613259565b91505092915050565b6000806040838503121561352257600080fd5b600061353085828601613259565b925050602083013567ffffffffffffffff81111561354d57600080fd5b6135598582860161322f565b9150509250929050565b6000806040838503121561357657600080fd5b600061358485828601613259565b925050602061359585828601613259565b9150509250929050565b60006135ab8383613ac2565b905092915050565b6135bc8161424b565b82525050565b6135cb81614239565b82525050565b60006135dc82614101565b6135e6818561412f565b9350836020820285016135f8856140dc565b8060005b858110156136345784840389528151613615858261359f565b945061362083614122565b925060208a019950506001810190506135fc565b50829750879550505050505092915050565b61364f8161425d565b82525050565b61365e8161425d565b82525050565b600061366f8261410c565b6136798185614140565b93506136898185602086016142ce565b6136928161449a565b840191505092915050565b60006136a882614117565b6136b28185614151565b93506136c28185602086016142ce565b6136cb8161449a565b840191505092915050565b60006136e182614117565b6136eb8185614162565b93506136fb8185602086016142ce565b6137048161449a565b840191505092915050565b600061371a82614117565b6137248185614173565b93506137348185602086016142ce565b80840191505092915050565b6000815461374d81614301565b6137578186614162565b945060018216600081146137725760018114613784576137b7565b60ff19831686526020860193506137b7565b61378d856140ec565b60005b838110156137af57815481890152600182019150602081019050613790565b808801955050505b50505092915050565b60006137cd601b83614162565b91506137d8826144ab565b602082019050919050565b60006137f0603283614162565b91506137fb826144d4565b604082019050919050565b6000613813602583614162565b915061381e82614523565b604082019050919050565b6000613836601c83614162565b915061384182614572565b602082019050919050565b6000613859602483614162565b91506138648261459b565b604082019050919050565b600061387c601983614162565b9150613887826145ea565b602082019050919050565b600061389f602c83614162565b91506138aa82614613565b604082019050919050565b60006138c2603883614162565b91506138cd82614662565b604082019050919050565b60006138e5602a83614162565b91506138f0826146b1565b604082019050919050565b6000613908602983614162565b915061391382614700565b604082019050919050565b600061392b602e83614162565b91506139368261474f565b604082019050919050565b600061394e604083614162565b91506139598261479e565b604082019050919050565b6000613971602083614162565b915061397c826147ed565b602082019050919050565b6000613994603183614162565b915061399f82614816565b604082019050919050565b60006139b7602a83614162565b91506139c282614865565b604082019050919050565b60006139da602c83614162565b91506139e5826148b4565b604082019050919050565b60006139fd602f83614162565b9150613a0882614903565b604082019050919050565b6000613a20602183614162565b9150613a2b82614952565b604082019050919050565b6000613a43602483614162565b9150613a4e826149a1565b604082019050919050565b6000613a66603183614162565b9150613a71826149f0565b604082019050919050565b6000613a89603083614162565b9150613a9482614a3f565b604082019050919050565b6000613aac601c83614162565b9150613ab782614a8e565b602082019050919050565b600060c083016000830151613ada6000860182613bd4565b506020830151613aed60208601826135b3565b506040830151613b0060408601826135b3565b506060830151613b136060860182613bd4565b5060808301518482036080860152613b2b828261369d565b91505060a0830151613b4060a0860182613646565b508091505092915050565b600060c083016000830151613b636000860182613bd4565b506020830151613b7660208601826135b3565b506040830151613b8960408601826135b3565b506060830151613b9c6060860182613bd4565b5060808301518482036080860152613bb4828261369d565b91505060a0830151613bc960a0860182613646565b508091505092915050565b613bdd816142b5565b82525050565b613bec816142b5565b82525050565b6000613bfe828561370f565b9150613c0a828461370f565b91508190509392505050565b6000602082019050613c2b60008301846135c2565b92915050565b6000608082019050613c4660008301876135c2565b613c5360208301866135c2565b613c606040830185613be3565b8181036060830152613c728184613664565b905095945050505050565b600060a082019050613c9260008301886135c2565b613c9f60208301876135c2565b613cac6040830186613be3565b8181036060830152613cbe81856136d6565b9050613ccd6080830184613655565b9695505050505050565b60006020820190508181036000830152613cf181846135d1565b905092915050565b6000602082019050613d0e6000830184613655565b92915050565b60006020820190508181036000830152613d2e81846136d6565b905092915050565b60006020820190508181036000830152613d508184613740565b905092915050565b60006020820190508181036000830152613d71816137c0565b9050919050565b60006020820190508181036000830152613d91816137e3565b9050919050565b60006020820190508181036000830152613db181613806565b9050919050565b60006020820190508181036000830152613dd181613829565b9050919050565b60006020820190508181036000830152613df18161384c565b9050919050565b60006020820190508181036000830152613e118161386f565b9050919050565b60006020820190508181036000830152613e3181613892565b9050919050565b60006020820190508181036000830152613e51816138b5565b9050919050565b60006020820190508181036000830152613e71816138d8565b9050919050565b60006020820190508181036000830152613e91816138fb565b9050919050565b60006020820190508181036000830152613eb18161391e565b9050919050565b60006020820190508181036000830152613ed181613941565b9050919050565b60006020820190508181036000830152613ef181613964565b9050919050565b60006020820190508181036000830152613f1181613987565b9050919050565b60006020820190508181036000830152613f31816139aa565b9050919050565b60006020820190508181036000830152613f51816139cd565b9050919050565b60006020820190508181036000830152613f71816139f0565b9050919050565b60006020820190508181036000830152613f9181613a13565b9050919050565b60006020820190508181036000830152613fb181613a36565b9050919050565b60006020820190508181036000830152613fd181613a59565b9050919050565b60006020820190508181036000830152613ff181613a7c565b9050919050565b6000602082019050818103600083015261401181613a9f565b9050919050565b600060208201905081810360008301526140328184613b4b565b905092915050565b600060208201905061404f6000830184613be3565b92915050565b600061405f614070565b905061406b8282614333565b919050565b6000604051905090565b600067ffffffffffffffff8211156140955761409461446b565b5b61409e8261449a565b9050602081019050919050565b600067ffffffffffffffff8211156140c6576140c561446b565b5b6140cf8261449a565b9050602081019050919050565b6000819050602082019050919050565b60008190508160005260206000209050919050565b600081519050919050565b600081519050919050565b600081519050919050565b6000602082019050919050565b600082825260208201905092915050565b600082825260208201905092915050565b600082825260208201905092915050565b600082825260208201905092915050565b600081905092915050565b6000614189826142b5565b9150614194836142b5565b9250827fffffffffffffffffffffffffffffffffffffffffffffffffffffffffffffffff038211156141c9576141c86143de565b5b828201905092915050565b60006141df826142b5565b91506141ea836142b5565b9250826141fa576141f961440d565b5b828204905092915050565b6000614210826142b5565b915061421b836142b5565b92508282101561422e5761422d6143de565b5b828203905092915050565b600061424482614295565b9050919050565b600061425682614295565b9050919050565b60008115159050919050565b60007fffffffff0000000000000000000000000000000000000000000000000000000082169050919050565b600073ffffffffffffffffffffffffffffffffffffffff82169050919050565b6000819050919050565b82818337600083830152505050565b60005b838110156142ec5780820151818401526020810190506142d1565b838111156142fb576000848401525b50505050565b6000600282049050600182168061431957607f821691505b6020821081141561432d5761432c61443c565b5b50919050565b61433c8261449a565b810181811067ffffffffffffffff8211171561435b5761435a61446b565b5b80604052505050565b600061436f826142b5565b91507fffffffffffffffffffffffffffffffffffffffffffffffffffffffffffffffff8214156143a2576143a16143de565b5b600182019050919050565b60006143b8826142b5565b91506143c3836142b5565b9250826143d3576143d261440d565b5b828206905092915050565b7f4e487b7100000000000000000000000000000000000000000000000000000000600052601160045260246000fd5b7f4e487b7100000000000000000000000000000000000000000000000000000000600052601260045260246000fd5b7f4e487b7100000000000000000000000000000000000000000000000000000000600052602260045260246000fd5b7f4e487b7100000000000000000000000000000000000000000000000000000000600052604160045260246000fd5b6000601f19601f8301169050919050565b7f436f756e7465723a2064656372656d656e74206f766572666c6f770000000000600082015250565b7f4552433732313a207472616e7366657220746f206e6f6e20455243373231526560008201527f63656976657220696d706c656d656e7465720000000000000000000000000000602082015250565b7f4552433732313a207472616e736665722066726f6d20696e636f72726563742060008201527f6f776e6572000000000000000000000000000000000000000000000000000000602082015250565b7f4552433732313a20746f6b656e20616c7265616479206d696e74656400000000600082015250565b7f4552433732313a207472616e7366657220746f20746865207a65726f2061646460008201527f7265737300000000000000000000000000000000000000000000000000000000602082015250565b7f4552433732313a20617070726f766520746f2063616c6c657200000000000000600082015250565b7f4552433732313a206f70657261746f7220717565727920666f72206e6f6e657860008201527f697374656e7420746f6b656e0000000000000000000000000000000000000000602082015250565b7f4552433732313a20617070726f76652063616c6c6572206973206e6f74206f7760008201527f6e6572206e6f7220617070726f76656420666f7220616c6c0000000000000000602082015250565b7f4552433732313a2062616c616e636520717565727920666f7220746865207a6560008201527f726f206164647265737300000000000000000000000000000000000000000000602082015250565b7f4552433732313a206f776e657220717565727920666f72206e6f6e657869737460008201527f656e7420746f6b656e0000000000000000000000000000000000000000000000602082015250565b7f45524337323155524953746f726167653a2055524920736574206f66206e6f6e60008201527f6578697374656e7420746f6b656e000000000000000000000000000000000000602082015250565b7f506c65617365207375626d6974207468652061736b696e67207072696365206960008201527f6e206f7264657220746f20636f6d706c65746520746865207075726368617365602082015250565b7f4552433732313a206d696e7420746f20746865207a65726f2061646472657373600082015250565b7f45524337323155524953746f726167653a2055524920717565727920666f722060008201527f6e6f6e6578697374656e7420746f6b656e000000000000000000000000000000602082015250565b7f4f6e6c79206974656d206f776e65722063616e20706572666f726d207468697360008201527f206f7065726174696f6e00000000000000000000000000000000000000000000602082015250565b7f4552433732313a20617070726f76656420717565727920666f72206e6f6e657860008201527f697374656e7420746f6b656e0000000000000000000000000000000000000000602082015250565b7f4552433732314d657461646174613a2055524920717565727920666f72206e6f60008201527f6e6578697374656e7420746f6b656e0000000000000000000000000000000000602082015250565b7f4552433732313a20617070726f76616c20746f2063757272656e74206f776e6560008201527f7200000000000000000000000000000000000000000000000000000000000000602082015250565b7f5072696365206d75737420626520657175616c20746f206c697374696e67207060008201527f7269636500000000000000000000000000000000000000000000000000000000602082015250565b7f4552433732313a207472616e736665722063616c6c6572206973206e6f74206f60008201527f776e6572206e6f7220617070726f766564000000000000000000000000000000602082015250565b7f4f6e6c79206d61726b6574706c616365206f776e65722063616e20757064617460008201527f65206c697374696e672070726963652e00000000000000000000000000000000602082015250565b7f5072696365206d757374206265206174206c6561737420312077656900000000600082015250565b614ac081614239565b8114614acb57600080fd5b50565b614ad78161425d565b8114614ae257600080fd5b50565b614aee81614269565b8114614af957600080fd5b50565b614b05816142b5565b8114614b1057600080fd5b5056fea26469706673582212205c48025a02eb901f681dae2c9dc012e947c95886ff80c03b700104b0a433d5b964736f6c63430008040033",
  "linkReferences": {},
  "deployedLinkReferences": {}
}